{
  "contractName": "EthPassport",
  "abi": [
    {
      "inputs": [],
      "payable": false,
      "stateMutability": "nonpayable",
      "type": "constructor"
    },
    {
      "anonymous": false,
      "inputs": [
        {
          "indexed": false,
          "internalType": "uint256",
          "name": "head",
          "type": "uint256"
        },
        {
          "indexed": false,
          "internalType": "enum EthPassport.Direction",
          "name": "direction",
          "type": "uint8"
        },
        {
          "indexed": false,
          "internalType": "uint8",
          "name": "temp",
          "type": "uint8"
        },
        {
          "indexed": false,
          "internalType": "address",
          "name": "updatedBy",
          "type": "address"
        },
        {
          "indexed": false,
          "internalType": "uint256",
          "name": "next",
          "type": "uint256"
        }
      ],
      "name": "EPUpdateTravelHistory",
      "type": "event"
    },
    {
      "anonymous": false,
      "inputs": [
        {
          "indexed": true,
          "internalType": "address",
          "name": "previousOwner",
          "type": "address"
        },
        {
          "indexed": true,
          "internalType": "address",
          "name": "newOwner",
          "type": "address"
        }
      ],
      "name": "OwnershipTransferred",
      "type": "event"
    },
    {
      "constant": true,
      "inputs": [],
      "name": "government",
      "outputs": [
        {
          "internalType": "contract Government",
          "name": "",
          "type": "address"
        }
      ],
      "payable": false,
      "stateMutability": "view",
      "type": "function"
    },
    {
      "constant": true,
      "inputs": [],
      "name": "head",
      "outputs": [
        {
          "internalType": "uint256",
          "name": "",
          "type": "uint256"
        }
      ],
      "payable": false,
      "stateMutability": "view",
      "type": "function"
    },
    {
      "constant": true,
      "inputs": [],
      "name": "isOwner",
      "outputs": [
        {
          "internalType": "bool",
          "name": "",
          "type": "bool"
        }
      ],
      "payable": false,
      "stateMutability": "view",
      "type": "function"
    },
    {
      "constant": true,
      "inputs": [],
      "name": "owner",
      "outputs": [
        {
          "internalType": "address",
          "name": "",
          "type": "address"
        }
      ],
      "payable": false,
      "stateMutability": "view",
      "type": "function"
    },
    {
      "constant": false,
      "inputs": [],
      "name": "renounceOwnership",
      "outputs": [],
      "payable": false,
      "stateMutability": "nonpayable",
      "type": "function"
    },
    {
      "constant": false,
      "inputs": [
        {
          "internalType": "address",
          "name": "newOwner",
          "type": "address"
        }
      ],
      "name": "transferOwnership",
      "outputs": [],
      "payable": false,
      "stateMutability": "nonpayable",
      "type": "function"
    },
    {
      "constant": true,
      "inputs": [
        {
          "internalType": "uint256",
          "name": "",
          "type": "uint256"
        }
      ],
      "name": "travelHistories",
      "outputs": [
        {
          "internalType": "uint256",
          "name": "next",
          "type": "uint256"
        },
        {
          "internalType": "uint256",
          "name": "timestamp",
          "type": "uint256"
        },
        {
          "internalType": "enum EthPassport.Direction",
          "name": "direction",
          "type": "uint8"
        },
        {
          "internalType": "uint8",
          "name": "temp",
          "type": "uint8"
        },
        {
          "internalType": "address",
          "name": "updatedBy",
          "type": "address"
        }
      ],
      "payable": false,
      "stateMutability": "view",
      "type": "function"
    },
    {
      "constant": true,
      "inputs": [],
      "name": "getParentAddress",
      "outputs": [
        {
          "internalType": "address",
          "name": "",
          "type": "address"
        }
      ],
      "payable": false,
      "stateMutability": "view",
      "type": "function"
    },
    {
      "constant": true,
      "inputs": [],
      "name": "getCountry",
      "outputs": [
        {
          "internalType": "uint16",
          "name": "",
          "type": "uint16"
        }
      ],
      "payable": false,
      "stateMutability": "view",
      "type": "function"
    },
    {
      "constant": true,
      "inputs": [],
      "name": "isHealthy",
      "outputs": [
        {
          "internalType": "bool",
          "name": "",
          "type": "bool"
        }
      ],
      "payable": false,
      "stateMutability": "view",
      "type": "function"
    },
    {
      "constant": false,
      "inputs": [
        {
          "internalType": "bool",
          "name": "_healthy",
          "type": "bool"
        }
      ],
      "name": "setHealth",
      "outputs": [],
      "payable": false,
      "stateMutability": "nonpayable",
      "type": "function"
    },
    {
      "constant": false,
      "inputs": [
        {
          "internalType": "enum EthPassport.Direction",
          "name": "_direction",
          "type": "uint8"
        },
        {
          "internalType": "uint8",
          "name": "_temp",
          "type": "uint8"
        }
      ],
      "name": "updateTravelHistory",
      "outputs": [],
      "payable": false,
      "stateMutability": "nonpayable",
      "type": "function"
    },
    {
      "constant": false,
      "inputs": [
        {
          "internalType": "uint256",
          "name": "_id",
          "type": "uint256"
        }
      ],
      "name": "getTravelHistoryWithId",
      "outputs": [
        {
          "internalType": "uint256",
          "name": "",
          "type": "uint256"
        },
        {
          "internalType": "uint256",
          "name": "",
          "type": "uint256"
        },
        {
          "internalType": "enum EthPassport.Direction",
          "name": "",
          "type": "uint8"
        },
        {
          "internalType": "uint256",
          "name": "",
          "type": "uint256"
        },
        {
          "internalType": "address",
          "name": "",
          "type": "address"
        }
      ],
      "payable": false,
      "stateMutability": "nonpayable",
      "type": "function"
    },
    {
      "constant": true,
      "inputs": [],
      "name": "getHeadId",
      "outputs": [
        {
          "internalType": "uint256",
          "name": "",
          "type": "uint256"
        }
      ],
      "payable": false,
      "stateMutability": "view",
      "type": "function"
    }
  ],
  "bytecode": "0x6080604052600060045534801561001557600080fd5b50600061002661011760201b60201c565b9050806000806101000a81548173ffffffffffffffffffffffffffffffffffffffff021916908373ffffffffffffffffffffffffffffffffffffffff1602179055508073ffffffffffffffffffffffffffffffffffffffff16600073ffffffffffffffffffffffffffffffffffffffff167f8be0079c531659141344cd1fd0a4f28419497f9722a3daafe3b4186f6b6457e060405160405180910390a3506100d261011f60201b60201c565b600160006101000a81548173ffffffffffffffffffffffffffffffffffffffff021916908373ffffffffffffffffffffffffffffffffffffffff160217905550610148565b600033905090565b60008060009054906101000a900473ffffffffffffffffffffffffffffffffffffffff16905090565b611254806101576000396000f3fe608060405234801561001057600080fd5b50600436106100ea5760003560e01c80639afb7b2f1161008c578063aa871e5811610066578063aa871e5814610343578063da43d6b114610361578063e4020804146103ff578063f2fde38b14610421576100ea565b80639afb7b2f146102555780639e0c3ead146102855780639fdf748f146102ab576100ea565b80638da5cb5b116100c85780638da5cb5b146101815780638f32d59b146101cb5780638f7dcfa3146101ed57806391fa05551461020b576100ea565b80632672f526146100ef5780633a4edce214610139578063715018a614610177575b600080fd5b6100f7610465565b604051808273ffffffffffffffffffffffffffffffffffffffff1673ffffffffffffffffffffffffffffffffffffffff16815260200191505060405180910390f35b6101756004803603604081101561014f57600080fd5b81019080803560ff169060200190929190803560ff16906020019092919050505061048b565b005b61017f610875565b005b6101896109ae565b604051808273ffffffffffffffffffffffffffffffffffffffff1673ffffffffffffffffffffffffffffffffffffffff16815260200191505060405180910390f35b6101d36109d7565b604051808215151515815260200191505060405180910390f35b6101f5610a35565b6040518082815260200191505060405180910390f35b610213610a3b565b604051808273ffffffffffffffffffffffffffffffffffffffff1673ffffffffffffffffffffffffffffffffffffffff16815260200191505060405180910390f35b6102836004803603602081101561026b57600080fd5b81019080803515159060200190929190505050610a65565b005b61028d610b11565b604051808261ffff1661ffff16815260200191505060405180910390f35b6102d7600480360360208110156102c157600080fd5b8101908080359060200190929190505050610bbb565b604051808681526020018581526020018460038111156102f357fe5b60ff1681526020018381526020018273ffffffffffffffffffffffffffffffffffffffff1673ffffffffffffffffffffffffffffffffffffffff1681526020019550505050505060405180910390f35b61034b610dd5565b6040518082815260200191505060405180910390f35b61038d6004803603602081101561037757600080fd5b8101908080359060200190929190505050610f2b565b604051808681526020018581526020018460038111156103a957fe5b60ff1681526020018360ff1660ff1681526020018273ffffffffffffffffffffffffffffffffffffffff1673ffffffffffffffffffffffffffffffffffffffff1681526020019550505050505060405180910390f35b610407610f9b565b604051808215151515815260200191505060405180910390f35b6104636004803603602081101561043757600080fd5b81019080803573ffffffffffffffffffffffffffffffffffffffff169060200190929190505050610fb2565b005b600160009054906101000a900473ffffffffffffffffffffffffffffffffffffffff1681565b600160009054906101000a900473ffffffffffffffffffffffffffffffffffffffff1673ffffffffffffffffffffffffffffffffffffffff166371ce6a15336040518263ffffffff1660e01b8152600401808273ffffffffffffffffffffffffffffffffffffffff1673ffffffffffffffffffffffffffffffffffffffff16815260200191505060206040518083038186803b15801561052a57600080fd5b505afa15801561053e573d6000803e3d6000fd5b505050506040513d602081101561055457600080fd5b8101908080519060200190929190505050806106465750600160009054906101000a900473ffffffffffffffffffffffffffffffffffffffff1673ffffffffffffffffffffffffffffffffffffffff1663abc39e59336040518263ffffffff1660e01b8152600401808273ffffffffffffffffffffffffffffffffffffffff1673ffffffffffffffffffffffffffffffffffffffff16815260200191505060206040518083038186803b15801561060a57600080fd5b505afa15801561061e573d6000803e3d6000fd5b505050506040513d602081101561063457600080fd5b81019080805190602001909291905050505b61069b576040517f08c379a00000000000000000000000000000000000000000000000000000000081526004018080602001828103825260228152602001806111d86022913960400191505060405180910390fd5b6106a3611184565b6040518060a0016040528060035481526020014281526020018460038111156106c857fe5b81526020018360ff1681526020013373ffffffffffffffffffffffffffffffffffffffff16815250905080600560006004548152602001908152602001600020600082015181600001556020820151816001015560408201518160020160006101000a81548160ff0219169083600381111561074057fe5b021790555060608201518160020160016101000a81548160ff021916908360ff16021790555060808201518160020160026101000a81548173ffffffffffffffffffffffffffffffffffffffff021916908373ffffffffffffffffffffffffffffffffffffffff16021790555090505060046000815480929190600101919050556003819055507f028163e01486100e9e74e164e99b57d9b585ebbcabe1fa1c8e583b72336b499260035482604001518360600151846080015185600001516040518086815260200185600381111561081557fe5b60ff1681526020018460ff1660ff1681526020018373ffffffffffffffffffffffffffffffffffffffff1673ffffffffffffffffffffffffffffffffffffffff1681526020018281526020019550505050505060405180910390a1505050565b61087d6109d7565b6108ef576040517f08c379a00000000000000000000000000000000000000000000000000000000081526004018080602001828103825260208152602001807f4f776e61626c653a2063616c6c6572206973206e6f7420746865206f776e657281525060200191505060405180910390fd5b600073ffffffffffffffffffffffffffffffffffffffff166000809054906101000a900473ffffffffffffffffffffffffffffffffffffffff1673ffffffffffffffffffffffffffffffffffffffff167f8be0079c531659141344cd1fd0a4f28419497f9722a3daafe3b4186f6b6457e060405160405180910390a360008060006101000a81548173ffffffffffffffffffffffffffffffffffffffff021916908373ffffffffffffffffffffffffffffffffffffffff160217905550565b60008060009054906101000a900473ffffffffffffffffffffffffffffffffffffffff16905090565b60008060009054906101000a900473ffffffffffffffffffffffffffffffffffffffff1673ffffffffffffffffffffffffffffffffffffffff16610a19611038565b73ffffffffffffffffffffffffffffffffffffffff1614905090565b60035481565b6000600160009054906101000a900473ffffffffffffffffffffffffffffffffffffffff16905090565b610a6d6109d7565b610adf576040517f08c379a00000000000000000000000000000000000000000000000000000000081526004018080602001828103825260208152602001807f4f776e61626c653a2063616c6c6572206973206e6f7420746865206f776e657281525060200191505060405180910390fd5b80600160146101000a81548160ff021916908315150217905550600015158115151415610b0e57426002819055505b50565b6000600160009054906101000a900473ffffffffffffffffffffffffffffffffffffffff1673ffffffffffffffffffffffffffffffffffffffff16639e0c3ead6040518163ffffffff1660e01b815260040160206040518083038186803b158015610b7b57600080fd5b505afa158015610b8f573d6000803e3d6000fd5b505050506040513d6020811015610ba557600080fd5b8101908080519060200190929190505050905090565b6000806000806000600160009054906101000a900473ffffffffffffffffffffffffffffffffffffffff1673ffffffffffffffffffffffffffffffffffffffff1663da886045336040518263ffffffff1660e01b8152600401808273ffffffffffffffffffffffffffffffffffffffff1673ffffffffffffffffffffffffffffffffffffffff16815260200191505060206040518083038186803b158015610c6257600080fd5b505afa158015610c76573d6000803e3d6000fd5b505050506040513d6020811015610c8c57600080fd5b8101908080519060200190929190505050610d0f576040517f08c379a00000000000000000000000000000000000000000000000000000000081526004018080602001828103825260188152602001807f526571756972657320476f7665726e6d656e7420526f6c65000000000000000081525060200191505060405180910390fd5b600560008781526020019081526020016000206000015460056000888152602001908152602001600020600101546005600089815260200190815260200160002060020160009054906101000a900460ff16600560008a815260200190815260200160002060020160019054906101000a900460ff16600560008b815260200190815260200160002060020160029054906101000a900473ffffffffffffffffffffffffffffffffffffffff168160ff1691509450945094509450945091939590929450565b6000600160009054906101000a900473ffffffffffffffffffffffffffffffffffffffff1673ffffffffffffffffffffffffffffffffffffffff1663da886045336040518263ffffffff1660e01b8152600401808273ffffffffffffffffffffffffffffffffffffffff1673ffffffffffffffffffffffffffffffffffffffff16815260200191505060206040518083038186803b158015610e7657600080fd5b505afa158015610e8a573d6000803e3d6000fd5b505050506040513d6020811015610ea057600080fd5b8101908080519060200190929190505050610f23576040517f08c379a00000000000000000000000000000000000000000000000000000000081526004018080602001828103825260188152602001807f526571756972657320476f7665726e6d656e7420526f6c65000000000000000081525060200191505060405180910390fd5b600354905090565b60056020528060005260406000206000915090508060000154908060010154908060020160009054906101000a900460ff16908060020160019054906101000a900460ff16908060020160029054906101000a900473ffffffffffffffffffffffffffffffffffffffff16905085565b6000600160149054906101000a900460ff16905090565b610fba6109d7565b61102c576040517f08c379a00000000000000000000000000000000000000000000000000000000081526004018080602001828103825260208152602001807f4f776e61626c653a2063616c6c6572206973206e6f7420746865206f776e657281525060200191505060405180910390fd5b61103581611040565b50565b600033905090565b600073ffffffffffffffffffffffffffffffffffffffff168173ffffffffffffffffffffffffffffffffffffffff1614156110c6576040517f08c379a00000000000000000000000000000000000000000000000000000000081526004018080602001828103825260268152602001806111fa6026913960400191505060405180910390fd5b8073ffffffffffffffffffffffffffffffffffffffff166000809054906101000a900473ffffffffffffffffffffffffffffffffffffffff1673ffffffffffffffffffffffffffffffffffffffff167f8be0079c531659141344cd1fd0a4f28419497f9722a3daafe3b4186f6b6457e060405160405180910390a3806000806101000a81548173ffffffffffffffffffffffffffffffffffffffff021916908373ffffffffffffffffffffffffffffffffffffffff16021790555050565b6040518060a001604052806000815260200160008152602001600060038111156111aa57fe5b8152602001600060ff168152602001600073ffffffffffffffffffffffffffffffffffffffff168152509056fe526571756972657320496d6d6967726174696f6e206f7220486f74656c20526f6c654f776e61626c653a206e6577206f776e657220697320746865207a65726f2061646472657373a265627a7a723158201c4901ad2b248406f0c87ccddb6f19ed1bcd7191e68ab099f3d7cdb0ee0f8df164736f6c63430005100032",
  "source": "pragma solidity ^0.5.0;\r\nimport \"../node_modules/@openzeppelin/contracts/ownership/Ownable.sol\";\r\n\r\nimport \"./Travlr.sol\";\r\nimport \"./Government.sol\";\r\n\r\ncontract EthPassport is Ownable {\r\n    \r\n  Government public government; //eth address assigned to passport\r\n  bool healthy;\r\n  uint lastUnhealthy; //timestamp of last recorded unhealthy: to track even after patient recovers\r\n\r\n  constructor() public {\r\n    //makes parent the first owner who created the contract not new owner who took over contract\r\n    government = Government(owner());\r\n  }\r\n  \r\n  enum Direction { entry, exit, checkin, checkout }\r\n    \r\n  struct TravelHistory { //linkedlist of a EthPassport's Travel History\r\n    uint next; //next node in linked list\r\n    uint timestamp;\r\n    Direction direction;\r\n    uint8 temp;\r\n    address updatedBy;\r\n  }\r\n  \r\n  uint public head; //latest record\r\n  uint id = 0;\r\n  mapping (uint => TravelHistory) public travelHistories;\r\n  event EPUpdateTravelHistory(uint head, Direction direction, uint8 temp, address updatedBy, uint next);\r\n\r\n  function getParentAddress() public view returns (address) {\r\n    return address(government);\r\n  }\r\n  \r\n  function getCountry() public view returns (uint16){\r\n      return government.getCountry();\r\n  }\r\n  \r\n  function isHealthy() public view returns (bool){\r\n      return healthy;\r\n  }\r\n  \r\n  function setHealth(bool _healthy) public onlyOwner {\r\n      healthy = _healthy;\r\n      if (_healthy == false){\r\n          lastUnhealthy = now;\r\n      }\r\n  }\r\n  \r\n  function updateTravelHistory(Direction _direction, uint8 _temp) onlyImmigrationOrHotel public { \r\n    TravelHistory memory travelHistory = TravelHistory(head,now,_direction,_temp, msg.sender);\r\n    travelHistories[id] = travelHistory;\r\n    head = id++;\r\n    emit EPUpdateTravelHistory(head,travelHistory.direction, travelHistory.temp, travelHistory.updatedBy, travelHistory.next);\r\n  }\r\n  \r\n  function getTravelHistoryWithId(uint _id) public onlyGovernment returns (uint,uint,Direction,uint,address){\r\n    return (travelHistories[_id].next,travelHistories[_id].timestamp,travelHistories[_id].direction,travelHistories[_id].temp, travelHistories[_id].updatedBy);\r\n  }\r\n\r\n  function getHeadId() public onlyGovernment view returns (uint) {\r\n    return head;\r\n  }\r\n  \r\n  modifier onlyImmigrationOrHotel(){\r\n      require(government.hotelHasRole(msg.sender)||government.immigrationHasRole(msg.sender), \"Requires Immigration or Hotel Role\");\r\n      _;\r\n  }\r\n  \r\n  modifier onlyGovernment() {\r\n      require(government.governmentHasRole(msg.sender),\"Requires Government Role\");\r\n      _;\r\n  }\r\n  \r\n}",
  "sourcePath": "C:\\Users\\Cyrus\\Documents\\Travlr\\travlr-backend\\contracts\\EthPassport.sol",
  "compiler": {
    "name": "solc",
    "version": "0.5.16+commit.9c3226ce.Emscripten.clang"
  },
  "schemaVersion": "3.0.23",
  "updatedAt": "2020-04-07T16:42:31.515Z",
  "networkType": "ethereum",
  "devdoc": {
    "methods": {
      "isOwner()": {
        "details": "Returns true if the caller is the current owner."
      },
      "owner()": {
        "details": "Returns the address of the current owner."
      },
      "renounceOwnership()": {
        "details": "Leaves the contract without owner. It will not be possible to call `onlyOwner` functions anymore. Can only be called by the current owner.      * NOTE: Renouncing ownership will leave the contract without an owner, thereby removing any functionality that is only available to the owner."
      },
      "transferOwnership(address)": {
        "details": "Transfers ownership of the contract to a new account (`newOwner`). Can only be called by the current owner."
      }
    }
  },
  "userdoc": {
    "methods": {}
  }
}